:100000000C94CF000C9460010C94EC000C94EC0068
:100010000C949B010C94EC000C94EC000C94EC0000
:100020000C94EC000C94EC000C94EC000C94EC00A0
:100030000C94EC000C94EC000C94EC000C94EC0090
:100040000C94EC000C94EC000C94EC000C94EC0080
:100050000C94EC000C94EC000C94EC000C94EC0070
:100060000C94EC000C94EC004E414E494E4954590E
:10007000494E46CDCCCC3D0AD7233C17B7D1387773
:10008000CC2B329595E6241FB14F0A000020410089
:1000900000C84200401C4620BCBE4CCA1B0E5AAED3
:1000A000C59D7400407A10F35A00A0724E180900E2
:1000B00010A5D4E80000E87648170000E40B5402CD
:1000C0000000CA9A3B000000E1F505000080969808
:1000D00000000040420F000000A086010000001058
:1000E0002700000000E8030000000064000000009A
:1000F000000A00000000000100000000002C76D87B
:1001000088DC674F0823DFC1DFAE59E1B1B796E560
:10011000E3E453C63AE651997696E8E6C28426EBC4
:10012000898C9B62ED407C6FFCEFBC9C9F40F2BAD7
:10013000A56FA5F490055A2AF75C936B6CF9676D6F
:10014000C11BFCE0E40D47FEF520E6B500D0ED90C4
:100150002E0300943577050080841E080000204E91
:100160000A000000C80C333333330F986E1283112A
:1001700041EF8D2114893BE65516CFFEE6DB18D101
:10018000844B381BF77C1D901DA4BBE424203284D3
:10019000725E228100C9F124ECA1E53D2700112403
:1001A0001FBECFEFD8E0DEBFCDBF12E0A0E0B1E0D0
:1001B000E4E8F9E102C005900D92A432B107D9F745
:1001C00022E0A4E2B2E001C01D92AC32B207E1F736
:1001D0000E94AC010C94C00C0C9400001092C5005D
:1001E00087E08093C40088E18093C10086E080931B
:1001F000C20008959091C00095FFFCCF8093C60087
:100200000895CF93DF93EC0103C021960E94FA007A
:1002100088818111FACFDF91CF910895DC0170E0E0
:100220000FC09091C0009923E4F79091C6009D30D3
:1002300081F09A3071F0FD01E70FF11D90837F5F2F
:10024000472F50E0262F30E0215031094217530745
:1002500044F3A70FB11D1C92089584B1826084B944
:10026000A0E8B0E08C9181608C93E1E8F0E08081BF
:10027000886080838C9180688C938081816080838A
:1002800082E390E0909389008093880008958AB17A
:10029000806C8AB908958BB180648BB98BB18F77EC
:1002A0008BB908958BB180688BB98BB18F7B8BB97B
:1002B00008958BB18F778BB98BB18F7B8BB90895F4
:1002C0001F920F920FB60F9211248F939F93AF93AB
:1002D000BF934B9B14C08091260290912702A0915E
:1002E0002802B09129020197A109B1098093260241
:1002F00090932702A0932802B093290213C0809103
:10030000260290912702A0912802B091290201961D
:10031000A11DB11D8093260290932702A09328026D
:10032000B0932902BF91AF919F918F910F900FBE13
:100330000F901F9018951F920F920FB60F921124D5
:100340008F93359903C081E0809325028F910F90A0
:100350000FBE0F901F901895CF93DF93CDB7DEB7E8
:10036000C958D1090FB6F894DEBF0FBECDBF0E94A9
:10037000EE000E942D010E9447018AB18B7F8AB94D
:100380008BB184608BB98AB1877F8AB98BB1886061
:100390008BB987B18F7D87B988B1806288B9E9E66A
:1003A000F0E08081836080838DB381608DBBECE65B
:1003B000F0E0808180628083E8E6F0E08081826006
:1003C000808378948CE091E00E9401010E944B01AF
:1003D0008CE390E0909389008093880006C08FE3BF
:1003E0009CE90197F1F700C0000080912502882365
:1003F000B1F30E9459019FEF21EE84E0915020401B
:100400008040E1F700C0000087E291E00E94010116
:1004100010922602109227021092280210922902AE
:1004200081E0809324021092250288E591E00E94E9
:10043000010111E0812C912CA12CB12C8091C000E4
:1004400088230CF0BCC060E2CE018F5A9F4F0E94FF
:100450000E0143E050E06BE971E0CE018F5A9F4FEF
:100460000E940A06892B59F5CE018C5A9F4F0E9493
:100470000606262F372F462F572F682F792F4093A8
:1004800004015093050160930601709307019F9347
:100490008F933F932F938FE991E09F938F93CE019A
:1004A00001967C019F938F930E941806C7010E94BA
:1004B00001010FB6F894DEBF0FBECDBF80C043E090
:1004C00050E06EEA71E0CE018F5A9F4F0E940A06FB
:1004D000892B59F5CE018C5A9F4F0E940606262F74
:1004E000372F462F572F682F792F409300015093B5
:1004F000010160930201709303019F938F933F93D7
:100500002F9382EB91E09F938F93CE0101967C0114
:100510009F938F930E941806C7010E9401010FB696
:10052000F894DEBF0FBECDBF4AC043E050E061EC9F
:1005300071E0CE018F5A9F4F0E940A06892B69F500
:10054000CE018C5A9F4F0E9406066093080170935B
:10055000090180930A0190930B0180910801909109
:100560000901A0910A01B0910B01BF93AF939F9332
:100570008F9385EC91E09F938F93CE0101967C0140
:100580009F938F930E941806C7010E9401010FB626
:10059000F894DEBF0FBECDBF12C062968FAD6297DA
:1005A000882369F080EE91E00E940101CE018F5A0C
:1005B0009F4F0E94010188E991E00E94010186B1EC
:1005C00091E0282F207285FF90E0C757DF4F988376
:1005D000C958D040113051F4211108C010922602A0
:1005E000109227021092280210922902609126028E
:1005F0007091270280912802909129020E94C404E0
:100600002AE939E949E95FE30E947905CB57DF4FD1
:10061000688379838A839B83C558D04060910801A1
:100620007091090180910A0190910B01CB57DF4F26
:10063000288139814A815B81C558D0400E941A04C3
:100640006B017C01282D392D4A2D5B2D0E941A0447
:100650002B013C01209104013091050140910601DC
:1006600050910701C701B6010E9479054B015C0159
:10067000209100013091010140910201509103014C
:10068000C301B2010E9479059B01AC01C501B4010F
:100690000E941B042B013C0120E030E04FE753E4B3
:1006A0000E94740518165CF020E030E04FE753EC30
:1006B000C301B2010E948704882354F011C00F2E99
:1006C000412C512CFFE76F2EF3E47F2EF02D08C054
:1006D0000F2E412C512CFFE76F2EF3EC7F2EF02DC7
:1006E00020E030E040E85FE3C701B6019F770E9459
:1006F000870488232CF40E945901A12CB12C19C025
:1007000020E030E0A901C301B2010E94740518166F
:1007100044F40E944B01C301B2010E948C045B01AE
:1007200008C00E945201C301B20190580E948C047B
:100730005B01BB2034F09FEFA916B10409F024F44B
:1007400006C0A12CB12C03C0AA24AA94B12CB0924B
:100750008900A09288001E0121E7220E311C810130
:1007600022E046E0CB57DF4F688179818A819B8107
:10077000C558D0400E94E6054E018BE7880E911CBB
:10078000840122E046E0C701B6010E94E60580919F
:10079000080190910901A0910A01B0910B01BF934A
:1007A000AF939F938F93809103018F938091020168
:1007B0008F93809101018F93809100018F9380919D
:1007C00007018F93809106018F93809105018F938C
:1007D000809104018F93BF92AF927F926F925F924C
:1007E0004F929F928F923F922F9288EF91E09F932A
:1007F0008F930A5711091F930F930E941806C8017F
:100800000E9401019FEF20E782E09150204080404C
:10081000E1F700C000000FB6F894DEBF0FBECDBFF9
:10082000C757DF4F1881C958D0408C2C9D2CAE2C57
:10083000BF2C04CE5058BB27AA270E9432040C9428
:100840003A050E942C0538F00E94330520F039F457
:100850009F3F19F426F40C9429050EF4E095E7FB6C
:100860000C942305E92F0E944B0558F3BA17620731
:1008700073078407950720F079F4A6F50C946D05AD
:100880000EF4E0950B2EBA2FA02D0B01B9019001AB
:100890000C01CA01A0011124FF27591B99F0593FEF
:1008A00050F4503E68F11A16F040A22F232F342F37
:1008B0004427585FF3CF469537952795A795F04085
:1008C0005395C9F77EF41F16BA0B620B730B840B9A
:1008D000BAF09150A1F0FF0FBB1F661F771F881F52
:1008E000C2F70EC0BA0F621F731F841F48F48795AA
:1008F00077956795B795F7959E3F08F0B0CF93959C
:10090000880F08F09927EE0F9795879508950E9414
:10091000FF0408F481E008950E9493046894B111E3
:100920000C946E0508950E94530588F09F5798F027
:10093000B92F9927B751B0F0E1F0660F771F881FE4
:10094000991F1AF0BA95C9F714C0B13091F00E94FE
:100950006D05B1E008950C946D05672F782F8827F9
:10096000B85F39F0B93FCCF3869577956795B39525
:10097000D9F73EF490958095709561957F4F8F4F94
:100980009F4F0895E89409C097FB3EF49095809599
:10099000709561957F4F8F4F9F4F9923A9F0F92F45
:1009A00096E9BB279395F695879577956795B795C3
:1009B000F111F8CFFAF4BB0F11F460FF1BC06F5FA9
:1009C0007F4F8F4F9F4F16C0882311F096E911C0BB
:1009D000772321F09EE8872F762F05C0662371F0DC
:1009E00096E8862F70E060E02AF09A95660F771FF0
:1009F000881FDAF7880F9695879597F90895990FCC
:100A00000008550FAA0BE0E8FEEF16161706E807D8
:100A1000F907C0F012161306E407F50798F0621BF9
:100A2000730B840B950B39F40A2661F0232B242BCE
:100A3000252B21F408950A2609F4A140A6958FEFED
:100A4000811D811D089597F99F6780E870E060E03F
:100A500008959FEF80EC089500240A941616170657
:100A600018060906089500240A941216130614069F
:100A700005060895092E0394000C11F4882352F002
:100A8000BB0F40F4BF2B11F460FF04C06F5F7F4FBA
:100A90008F4F9F4F089557FD9058440F551F59F0A1
:100AA0005F3F71F04795880F97FB991F61F09F3F5B
:100AB00079F087950895121613061406551FF2CF84
:100AC0004695F1DF08C0161617061806991FF1CFD4
:100AD00086957105610508940895E894BB276627FB
:100AE0007727CB0197F908950E94FF0408F48FEF50
:100AF00008950E948C050C943A050E942C0538F04C
:100B00000E94330520F0952311F00C9423050C94DA
:100B1000290511240C946E050E944B0570F3959FD6
:100B2000C1F3950F50E0551F629FF001729FBB27E4
:100B3000F00DB11D639FAA27F00DB11DAA1F649F80
:100B40006627B00DA11D661F829F2227B00DA11D33
:100B5000621F739FB00DA11D621F839FA00D611DB9
:100B6000221F749F3327A00D611D231F849F600DDA
:100B7000211D822F762F6A2F11249F5750409AF003
:100B8000F1F088234AF0EE0FFF1FBB1F661F771F8F
:100B9000881F91505040A9F79E3F510580F00C945A
:100BA00023050C946E055F3FE4F3983ED4F38695DD
:100BB00077956795B795F795E7959F5FC1F7FE2BFA
:100BC000880F911D9695879597F90895EF920F9349
:100BD0001F93CF93DF93E80147FD02C034E001C0CB
:100BE00034E1042E000C550B57FF03C0519541957D
:100BF0005109E32E022F242FAE010E941B08CE01C3
:100C0000DF91CF911F910F91EF900895662777277D
:100C10000C947509FB01DC014150504030F08D917E
:100C20000190801919F40020B9F7881B990B0895D9
:100C3000AEE0B0E0EEE1F6E00C94880C0D891E8980
:100C400086E08C831A8309838FEF9FE79E838D83D1
:100C5000AE01475E5F4F6F89788DCE0101960E948D
:100C60003A06EF81F885E00FF11F10822E96E4E03E
:100C70000C94A40CABE0B0E0E0E4F6E00C947A0C49
:100C80006C017B018A01FC0117821682838181FF3E
:100C9000CCC1CE0101963C01F6019381F70193FD91
:100CA000859193FF81917F01882309F4BAC1853230
:100CB00039F493FD859193FF81917F01853229F469
:100CC000B60190E00E94D20BE7CF912C212C312C61
:100CD000FFE1F315D8F08B3279F038F4803279F0F7
:100CE0008332A1F4232D20611DC08D3261F0803349
:100CF00069F4232D216016C0832D8260382EE32DE8
:100D0000E4603E2E2AC0F32DF8601DC037FC2DC0D4
:100D100020ED280F2A3040F08E32B9F436FC81C124
:100D2000232D2064322E19C036FE06C08AE0989E1C
:100D3000200D1124922E11C0EAE02E9E200D1124C8
:100D4000222EF32DF0623F2E08C08C3621F4832D25
:100D50008068382E02C0883641F4F70193FD8591F2
:100D600093FF81917F018111B3CF982F9F7D95547F
:100D7000933028F40C5F1F4F9FE399830DC0833697
:100D800031F0833771F0833509F059C021C0F80183
:100D9000808189830E5F1F4F88248394912C530197
:100DA00013C02801F2E04F0E511CF801A080B18061
:100DB00036FE03C0692D70E002C06FEF7FEFC50102
:100DC0000E94C70B4C018201F32DFF773F2E16C006
:100DD000280122E0420E511CF801A080B18036FEAD
:100DE00003C0692D70E002C06FEF7FEFC5010E9464
:100DF000BC0B4C01F32DF0683F2E820133FC1BC06D
:100E0000822D90E088169906B0F4B60180E290E059
:100E10000E94D20B2A94F4CFF50137FC859137FE5E
:100E200081915F01B60190E00E94D20B21102A94BB
:100E300021E0821A91088114910471F7E8C0843688
:100E400011F0893641F5F80137FE07C060817181E4
:100E5000828193810C5F1F4F08C060817181072ED2
:100E6000000C880B990B0E5F1F4FF32DFF763F2E62
:100E700097FF09C090958095709561957F4F8F4F32
:100E80009F4FF0683F2E2AE030E0A3010E940E0C35
:100E9000882E861845C0853731F4232D2F7EB22E3B
:100EA0002AE030E025C0932D997FB92E8F36C1F00E
:100EB00018F4883579F0B5C0803719F0883721F0FB
:100EC000B0C0E92FE061BE2EB4FE0DC0FB2DF46072
:100ED000BF2E09C034FE0AC0292F2660B22E06C0DC
:100EE00028E030E005C020E130E002C020E132E03F
:100EF000F801B7FE07C060817181828193810C5F28
:100F00001F4F06C06081718180E090E00E5F1F4F2F
:100F1000A3010E940E0C882E8618FB2DFF773F2E12
:100F200036FE0DC0232D2E7FA22E891458F434FED8
:100F30000BC032FC09C0832D8E7EA82E05C0B82CB4
:100F4000A32C03C0B82C01C0B92CA4FE0FC0FE0115
:100F5000E80DF11D8081803321F49A2D997EA92E10
:100F600009C0A2FE06C0B394B39404C08A2D86784B
:100F700009F0B394A3FC11C0A0FE06C0B21488F41B
:100F8000280C922C9B180EC0B21460F4B60180E2BB
:100F900090E00E94D20BB394F7CFB21418F42B1840
:100FA00002C0982C212CA4FE10C0B60180E390E072
:100FB0000E94D20BA2FE17C0A1FC03C088E790E0FC
:100FC00002C088E590E0B6010CC08A2D867859F001
:100FD000A1FE02C08BE201C080E2A7FC8DE2B60157
:100FE00090E00E94D20B891438F4B60180E390E0BF
:100FF0000E94D20B9A94F7CF8A94F301E80DF11D69
:101000008081B60190E00E94D20B8110F5CF2220A2
:1010100009F442CEB60180E290E00E94D20B2A94FD
:10102000F6CFF6018681978102C08FEF9FEF2B9656
:10103000E2E10C94960CA9E0B0E0E1E2F8E00C9457
:10104000800C6A01122FB02E2BE3201720F0FF2412
:10105000F394F00E02C02CE3F22E0F2D27E0AE0128
:101060004F5F5F4F0E94C30ABC014981842F897082
:10107000813031F0E1FC06C0E0FE06C090E205C020
:101080009DE203C09BE201C090E05E2D507143FFE2
:101090003CC0911102C083E001C084E0811718F4C4
:1010A000212F281B01C020E051110BC0F601822F17
:1010B00030E2882319F031938150FBCFC20ED11C4E
:1010C00020E0992329F0D6019C93F60131966F0117
:1010D000C6010396E2FE0AC03EE4D6013C9341E419
:1010E00011964C93119712963C9306C03EE6F6017A
:1010F000308341E641833283FC01322F40E23323C7
:1011000009F442C041933150FACF42FF44C09111DB
:1011100002C083E001C084E0811718F4212F281B4E
:1011200001C020E051110BC0F601822F30E288236C
:1011300019F031938150FBCFC20ED11C20E09923CE
:1011400029F0D6019C93F60131966F01C6010396F2
:10115000E2FE0BC039E4D6013C933EE411963C9389
:10116000119736E412963C9307C039E6F6013083B6
:101170003EE6318336E63283FC01322F40E23323F0
:1011800019F041933150FBCFFC01E20FF11D1082A9
:101190008EEF9FEFA6C021E030E0911102C020E069
:1011A00030E0161617061CF4FB01319602C0E1E090
:1011B000F0E02E0F3F1FBB2021F0EB2DF0E0319629
:1011C00002C0E0E0F0E02E0F3F1FE12FF0E02E170D
:1011D0003F071CF4121B212F01C020E08E2D8871C7
:1011E00059F4F601822F30E2882319F031938150AF
:1011F000FBCFC20ED11C20E0992329F0D6019C938D
:10120000F60131966F0151110BC0F601822F90E368
:10121000882319F091938150FBCFC20ED11C20E09E
:101220000F2D060F9A81342F307144FF03C0913384
:1012300009F40150101624F4093018F008E001C038
:1012400001E0AB0177FF02C040E050E0FB01E41B8E
:10125000F50BA1E0B0E0AC0FBD1FEA0FFB1F8EE263
:10126000A82E4B01801A91080B2D10E011950195C5
:1012700011094F3FBFEF5B0721F4D601AC921196E5
:101280006D01641775072CF08416950614F481819E
:1012900001C080E3415051093196D60111967D017C
:1012A0004017510724F0D6018C936701E2CF6417F1
:1012B000750739F4963320F4953319F4311101C0D0
:1012C00081E3F6018083F701822F90E2882319F0F1
:1012D00091938150FBCFF701E20FF11D108280E066
:1012E00090E02996ECE00C949C0CA0E0B0E0EBE7D9
:1012F000F9E00C94800CEC016B016115710519F09B
:10130000FB01918380837E01FFEFEF1AFF0A0881C2
:10131000802F90E00E949B0B892B11F0E701F3CF07
:101320000D3239F47E0182E0E80EF11C098111E0F2
:1013300008C00B3229F47E0192E0E90EF11C09810C
:1013400010E0E701219743E050E060E770E0CE0154
:101350000E94A40B892BC1F4239645E050E06BE674
:1013600070E0CE010E94A40B892B09F42596C114CC
:10137000D10419F0F601D183C0831111F6C060E0E9
:1013800070E080E89FE7FAC043E050E068E670E074
:10139000CE010E94A40B892B59F4C114D10409F485
:1013A000E9C0F2E0EF0EF11CF601F182E082E2C04A
:1013B00020E030E0A901C0E0D0E0F70180EDA82EE8
:1013C000A00E89E08A1530F1912F9260B92E812FFD
:1013D000887012FF04C0811124C0219622C081119F
:1013E0002197A5E0B0E00E946F0CDC01CB01880FD3
:1013F000991FAA1FBB1F9C01AD012A0D311D411D64
:10140000511D283989E93807480789E1580748F00C
:10141000166006C09EEFA9120AC013FD40C01860F6
:10142000B12E8FEFE81AF80A00811B2DC6CF802F4E
:101430008F7D8534A1F580818D3211F4106106C055
:101440008B3221F0319661E070E004C081813296E8
:1014500062E070E080538A3018F0E61BF70B1FC083
:1014600060E070E060389CE079075CF4DB01AA0F73
:10147000BB1FAA0FBB1F6A0F7B1F660F771F680F6A
:10148000711D3196DF0111978C9180538A3050F392
:1014900014FF03C0719561957109C60FD71F11FF25
:1014A00008C0C114D10429F0CF010197F60191833E
:1014B0008083CA01B9010E94C204212F2370233006
:1014C00019F04B015C0106C04B015C01B7FAB09406
:1014D000B7F8B09420E030E0A901C501B4010E9442
:1014E0008704882309F43EC0D7FF06C0D195C19573
:1014F000D10907E810E002C00FE910E06801F8E147
:10150000CF1AD10890E2E92EF12CCE15DF0574F048
:10151000F8012591359145915491C501B4010E947E
:1015200079054B015C01CE19DF09EFCF0450110999
:10153000F594E7940C151D0541F78A2D880F8B2D26
:10154000881F8F3F49F020E030E0A901C501B401B8
:101550000E948704811106C082E290E090932B02E2
:1015600080932A02C501B40109C060E070E080E800
:101570009FEF04C060E070E080EC9FE7CDB7DEB77E
:10158000ECE00C949C0C283008F027E03327DA01BB
:10159000990F311D87FD916000966105710539F441
:1015A00032602E5F3D9330E32A95E1F708959F3F27
:1015B00030F080387105610509F03C5F3C5F3D9378
:1015C000913008F08068911DDF93CF931F930F93A4
:1015D000FF92EF92192F987F9695E92F9695969501
:1015E000E90FFF27E350FF4F99273327EE24FF240D
:1015F000A701E70105900894079428F4360FE71E29
:10160000F81E491F511D660F771F881F991F0694EA
:10161000A1F70590079428F4E70EF81E491F561FFE
:10162000C11D770F881F991F661F0694A1F70590AB
:10163000079428F4F80E491F561FC71FD11D880FA5
:10164000991F661F771F0694A1F70590079420F451
:10165000490F561FC71FD81F990F661F771F881F76
:101660000694A9F784911095177041F0D695C79507
:1016700057954795F794E7941A95C1F7E3EAF0E098
:1016800068941590159135916591959105907FE23B
:101690007395E118F10A430B560BC90BD009C0F73B
:1016A000E10CF11E431F561FC91FD01D7EF470337D
:1016B00011F48A95E6CFE894015030F0080F0AF44F
:1016C0000027021708F4202F2395022F7A3328F0E1
:1016D00079E37D932A95E9F710C07D932A9589F6E1
:1016E000069497956795379517951794E118F10A21
:1016F000430B560BC90BD00998F023957E91739537
:101700007A3308F070E37C932013B8F77E91706110
:101710007D9330F0839571E37D9370E32A95E1F733
:101720001124EF90FF900F911F91CF91DF91992796
:1017300087FD9095089591110C946C0C803219F0EE
:1017400089508550C8F70895FB01DC014150504095
:1017500088F08D9181341CF08B350CF4805E65919E
:1017600061341CF06B350CF4605E861B611171F303
:10177000990B0895881BFCCFFC01059061507040C7
:101780000110D8F7809590958E0F9F1F0895FC014A
:101790006150704001900110D8F7809590958E0FA0
:1017A0009F1F08950F931F93CF93DF93FB01238116
:1017B00021FD03C08FEF9FEF2CC022FF16C0468192
:1017C0005781248135814217530744F4A081B181A8
:1017D0009D012F5F3F4F318320838C93268137817A
:1017E0002F5F3F4F3783268314C08B01EC01FB0131
:1017F0000084F185E02D0995892BE1F6D801169634
:101800008D919C911797019617969C938E9316979E
:10181000CE01DF91CF911F910F910895FA01AA2770
:10182000283051F1203181F1E8946F936E7F6E5F23
:101830007F4F8F4F9F4FAF4FB1E03ED0B4E03CD0D1
:10184000670F781F891F9A1FA11D680F791F8A1FB4
:10185000911DA11D6A0F711D811D911DA11D20D01B
:1018600009F468943F912AE0269F11243019305DD5
:101870003193DEF6CF010895462F4770405D4193C6
:10188000B3E00FD0C9F7F6CF462F4F70405D4A3313
:1018900018F0495D31FD4052419302D0A9F7EACFDB
:1018A000B4E0A6959795879577956795BA95C9F70A
:1018B00000976105710508959B01AC010A2E0694FD
:1018C0005795479537952795BA95C9F7620F731FB6
:1018D000841F951FA01D08959927882708950E94A9
:1018E000B10CA59F900DB49F900DA49F800D911DEC
:1018F000112408952F923F924F925F926F927F92A0
:101900008F929F92AF92BF92CF92DF92EF92FF920F
:101910000F931F93CF93DF93CDB7DEB7CA1BDB0BBB
:101920000FB6F894DEBF0FBECDBF09942A88398860
:1019300048885F846E847D848C849B84AA84B98467
:10194000C884DF80EE80FD800C811B81AA81B98173
:10195000CE0FD11D0FB6F894DEBF0FBECDBFED0187
:101960000895A29FB001B39FC001A39F700D811D78
:101970001124911DB29F700D811D1124911D089598
:04198000F894FFCF09
:101984006666663FCDCC4C3E0000B442496E696346
:1019940069616E646F2063616C6962726163696F0F
:1019A4006E2E2E2E0D0A0043616C696272616369AA
:1019B4006F6E20636F6D706C65746164612E20536B
:1019C400656E736F722048616C6C20646574656326
:1019D4007461646F2E0D0A0053697374656D612020
:1019E4006C6973746F2E204573706572616E646FD9
:1019F40020636F6D616E646F732028656A3A204BB3
:101A0400503D302E352C204B443D302E382C204177
:101A14004E3D3138302E30290D0A004B503D004EDA
:101A24007565766F204B703A2025660D0A004B448D
:101A34003D004E7565766F204B643A2025660D0A8D
:101A440000414E3D004E7565766F20416E67756CA2
:101A54006F204465736561646F3A2025660D0A0042
:101A6400436F6D616E646F206E6F207265636F6E7D
:101A74006F6369646F3A2000412573204525732004
:101A84005343252E32662050574D2564204B702534
:101A94002E3266204B64252E3266204144252E3199
:041AA400660D0A00C1
:00000001FF
